{
  "_format": "hh-sol-artifact-1",
  "contractName": "BuildSpace",
  "sourceName": "contracts/buildspace.sol",
  "abi": [
    {
      "inputs": [],
      "stateMutability": "nonpayable",
      "type": "constructor"
    },
    {
      "inputs": [
        {
          "internalType": "address",
          "name": "_waverAddress",
          "type": "address"
        },
        {
          "internalType": "string",
          "name": "_waverName",
          "type": "string"
        }
      ],
      "name": "addWaver",
      "outputs": [],
      "stateMutability": "nonpayable",
      "type": "function"
    },
    {
      "inputs": [],
      "name": "getTotalWaves",
      "outputs": [
        {
          "internalType": "uint256",
          "name": "",
          "type": "uint256"
        }
      ],
      "stateMutability": "view",
      "type": "function"
    },
    {
      "inputs": [
        {
          "internalType": "uint256",
          "name": "",
          "type": "uint256"
        }
      ],
      "name": "handArray",
      "outputs": [
        {
          "internalType": "string",
          "name": "",
          "type": "string"
        }
      ],
      "stateMutability": "view",
      "type": "function"
    },
    {
      "inputs": [
        {
          "internalType": "uint256",
          "name": "",
          "type": "uint256"
        }
      ],
      "name": "namesArray",
      "outputs": [
        {
          "internalType": "string",
          "name": "",
          "type": "string"
        }
      ],
      "stateMutability": "view",
      "type": "function"
    },
    {
      "inputs": [],
      "name": "totalWaves",
      "outputs": [
        {
          "internalType": "uint256",
          "name": "",
          "type": "uint256"
        }
      ],
      "stateMutability": "view",
      "type": "function"
    },
    {
      "inputs": [
        {
          "internalType": "string",
          "name": "_hand",
          "type": "string"
        }
      ],
      "name": "wave",
      "outputs": [],
      "stateMutability": "nonpayable",
      "type": "function"
    },
    {
      "inputs": [
        {
          "internalType": "address",
          "name": "",
          "type": "address"
        }
      ],
      "name": "waverAddressNames",
      "outputs": [
        {
          "internalType": "string",
          "name": "",
          "type": "string"
        }
      ],
      "stateMutability": "view",
      "type": "function"
    },
    {
      "inputs": [],
      "name": "waverName",
      "outputs": [
        {
          "internalType": "string",
          "name": "",
          "type": "string"
        }
      ],
      "stateMutability": "view",
      "type": "function"
    }
  ],
  "bytecode": "0x60806040526000805560405180606001604052806040518060400160405280600481526020017f726f636b0000000000000000000000000000000000000000000000000000000081525081526020016040518060400160405280600581526020017f706170657200000000000000000000000000000000000000000000000000000081525081526020016040518060400160405280600881526020017f73636973736f72730000000000000000000000000000000000000000000000008152508152506003906003620000d4929190620001e4565b50348015620000e257600080fd5b5062000112604051806060016040528060258152602001620011ed602591396200011860201b6200057a1760201c565b62000496565b620001b8816040516024016200012f9190620003aa565b6040516020818303038152906040527f41304fac000000000000000000000000000000000000000000000000000000007bffffffffffffffffffffffffffffffffffffffffffffffffffffffff19166020820180517bffffffffffffffffffffffffffffffffffffffffffffffffffffffff8381831617835250505050620001bb60201b60201c565b50565b60008151905060006a636f6e736f6c652e6c6f679050602083016000808483855afa5050505050565b82805482825590600052602060002090810192821562000238579160200282015b8281111562000237578251829080519060200190620002269291906200024b565b509160200191906001019062000205565b5b509050620002479190620002dc565b5090565b828054620002599062000420565b90600052602060002090601f0160209004810192826200027d5760008555620002c9565b82601f106200029857805160ff1916838001178555620002c9565b82800160010185558215620002c9579182015b82811115620002c8578251825591602001919060010190620002ab565b5b509050620002d8919062000304565b5090565b5b80821115620003005760008181620002f6919062000323565b50600101620002dd565b5090565b5b808211156200031f57600081600090555060010162000305565b5090565b508054620003319062000420565b6000825580601f1062000345575062000366565b601f01602090049060005260206000209081019062000365919062000304565b5b50565b60006200037682620003ce565b620003828185620003d9565b935062000394818560208601620003ea565b6200039f8162000485565b840191505092915050565b60006020820190508181036000830152620003c6818462000369565b905092915050565b600081519050919050565b600082825260208201905092915050565b60005b838110156200040a578082015181840152602081019050620003ed565b838111156200041a576000848401525b50505050565b600060028204905060018216806200043957607f821691505b6020821081141562000450576200044f62000456565b5b50919050565b7f4e487b7100000000000000000000000000000000000000000000000000000000600052602260045260246000fd5b6000601f19601f8301169050919050565b610d4780620004a66000396000f3fe608060405234801561001057600080fd5b50600436106100885760003560e01c80634e0188081161005b5780634e018808146101275780639a2cdc0814610143578063a1f7914614610161578063d6c0afbe1461017f57610088565b806301e6d9911461008d578063291bcab3146100bd578063449d46c0146100db5780634831df2b146100f7575b600080fd5b6100a760048036038101906100a291906108ac565b6101af565b6040516100b491906109ea565b60405180910390f35b6100c561024f565b6040516100d29190610a81565b60405180910390f35b6100f560048036038101906100f09190610929565b610255565b005b610111600480360381019061010c919061096a565b6102b1565b60405161011e91906109ea565b60405180910390f35b610141600480360381019061013c91906108d5565b61035d565b005b61014b6103f5565b6040516101589190610a81565b60405180910390f35b610169610440565b60405161017691906109ea565b60405180910390f35b6101996004803603810190610194919061096a565b6104ce565b6040516101a691906109ea565b60405180910390f35b600560205280600052604060002060009150905080546101ce90610be2565b80601f01602080910402602001604051908101604052809291908181526020018280546101fa90610be2565b80156102475780601f1061021c57610100808354040283529160200191610247565b820191906000526020600020905b81548152906001019060200180831161022a57829003601f168201915b505050505081565b60005481565b60016000808282546102679190610b0e565b925050819055506102ae6040518060400160405280601781526020017f2573206a757374207761766564207769746820612025730000000000000000008152503383610613565b50565b600381815481106102c157600080fd5b9060005260206000200160009150905080546102dc90610be2565b80601f016020809104026020016040519081016040528092919081815260200182805461030890610be2565b80156103555780601f1061032a57610100808354040283529160200191610355565b820191906000526020600020905b81548152906001019060200180831161033857829003601f168201915b505050505081565b80600560008473ffffffffffffffffffffffffffffffffffffffff1673ffffffffffffffffffffffffffffffffffffffff16815260200190815260200160002090805190602001906103b0929190610777565b506103f16040518060400160405280600e81526020017f2573206973206e616d65642025730000000000000000000000000000000000008152508383610613565b5050565b60006104386040518060400160405280601681526020017f5765206861766520256420746f74616c207761766573000000000000000000008152506000546106b2565b600054905090565b6001805461044d90610be2565b80601f016020809104026020016040519081016040528092919081815260200182805461047990610be2565b80156104c65780601f1061049b576101008083540402835291602001916104c6565b820191906000526020600020905b8154815290600101906020018083116104a957829003601f168201915b505050505081565b600281815481106104de57600080fd5b9060005260206000200160009150905080546104f990610be2565b80601f016020809104026020016040519081016040528092919081815260200182805461052590610be2565b80156105725780601f1061054757610100808354040283529160200191610572565b820191906000526020600020905b81548152906001019060200180831161055557829003601f168201915b505050505081565b6106108160405160240161058e91906109ea565b6040516020818303038152906040527f41304fac000000000000000000000000000000000000000000000000000000007bffffffffffffffffffffffffffffffffffffffffffffffffffffffff19166020820180517bffffffffffffffffffffffffffffffffffffffffffffffffffffffff838183161783525050505061074e565b50565b6106ad83838360405160240161062b93929190610a0c565b6040516020818303038152906040527fe0e9ad4f000000000000000000000000000000000000000000000000000000007bffffffffffffffffffffffffffffffffffffffffffffffffffffffff19166020820180517bffffffffffffffffffffffffffffffffffffffffffffffffffffffff838183161783525050505061074e565b505050565b61074a82826040516024016106c8929190610a51565b6040516020818303038152906040527f9710a9d0000000000000000000000000000000000000000000000000000000007bffffffffffffffffffffffffffffffffffffffffffffffffffffffff19166020820180517bffffffffffffffffffffffffffffffffffffffffffffffffffffffff838183161783525050505061074e565b5050565b60008151905060006a636f6e736f6c652e6c6f679050602083016000808483855afa5050505050565b82805461078390610be2565b90600052602060002090601f0160209004810192826107a557600085556107ec565b82601f106107be57805160ff19168380011785556107ec565b828001600101855582156107ec579182015b828111156107eb5782518255916020019190600101906107d0565b5b5090506107f991906107fd565b5090565b5b808211156108165760008160009055506001016107fe565b5090565b600061082d61082884610ac1565b610a9c565b90508281526020810184848401111561084557600080fd5b610850848285610ba0565b509392505050565b60008135905061086781610ce3565b92915050565b600082601f83011261087e57600080fd5b813561088e84826020860161081a565b91505092915050565b6000813590506108a681610cfa565b92915050565b6000602082840312156108be57600080fd5b60006108cc84828501610858565b91505092915050565b600080604083850312156108e857600080fd5b60006108f685828601610858565b925050602083013567ffffffffffffffff81111561091357600080fd5b61091f8582860161086d565b9150509250929050565b60006020828403121561093b57600080fd5b600082013567ffffffffffffffff81111561095557600080fd5b6109618482850161086d565b91505092915050565b60006020828403121561097c57600080fd5b600061098a84828501610897565b91505092915050565b61099c81610b64565b82525050565b60006109ad82610af2565b6109b78185610afd565b93506109c7818560208601610baf565b6109d081610cd2565b840191505092915050565b6109e481610b96565b82525050565b60006020820190508181036000830152610a0481846109a2565b905092915050565b60006060820190508181036000830152610a2681866109a2565b9050610a356020830185610993565b8181036040830152610a4781846109a2565b9050949350505050565b60006040820190508181036000830152610a6b81856109a2565b9050610a7a60208301846109db565b9392505050565b6000602082019050610a9660008301846109db565b92915050565b6000610aa6610ab7565b9050610ab28282610c14565b919050565b6000604051905090565b600067ffffffffffffffff821115610adc57610adb610ca3565b5b610ae582610cd2565b9050602081019050919050565b600081519050919050565b600082825260208201905092915050565b6000610b1982610b96565b9150610b2483610b96565b9250827fffffffffffffffffffffffffffffffffffffffffffffffffffffffffffffffff03821115610b5957610b58610c45565b5b828201905092915050565b6000610b6f82610b76565b9050919050565b600073ffffffffffffffffffffffffffffffffffffffff82169050919050565b6000819050919050565b82818337600083830152505050565b60005b83811015610bcd578082015181840152602081019050610bb2565b83811115610bdc576000848401525b50505050565b60006002820490506001821680610bfa57607f821691505b60208210811415610c0e57610c0d610c74565b5b50919050565b610c1d82610cd2565b810181811067ffffffffffffffff82111715610c3c57610c3b610ca3565b5b80604052505050565b7f4e487b7100000000000000000000000000000000000000000000000000000000600052601160045260246000fd5b7f4e487b7100000000000000000000000000000000000000000000000000000000600052602260045260246000fd5b7f4e487b7100000000000000000000000000000000000000000000000000000000600052604160045260246000fd5b6000601f19601f8301169050919050565b610cec81610b64565b8114610cf757600080fd5b50565b610d0381610b96565b8114610d0e57600080fd5b5056fea26469706673582212207fdcfbf9b14a52ac48910fbd9bed0d040d7f026de99d91afecc495207dd4c73e64736f6c63430008040033596f20796f2c204920616d206120636f6e747261637420616e64204920616d20736d617274",
  "linkReferences": {},
  "deployedLinkReferences": {}
}