{
  "_format": "hh-sol-artifact-1",
  "contractName": "BuildSpace",
  "sourceName": "contracts/buildspace.sol",
  "abi": [
    {
      "inputs": [],
      "stateMutability": "nonpayable",
      "type": "constructor"
    },
    {
      "inputs": [],
      "name": "getAllThrows",
      "outputs": [
        {
          "components": [
            {
              "internalType": "address",
              "name": "throwerAddress",
              "type": "address"
            },
            {
              "internalType": "enum BuildSpace.handOptions",
              "name": "hand",
              "type": "uint8"
            },
            {
              "internalType": "uint256",
              "name": "timestamp",
              "type": "uint256"
            },
            {
              "internalType": "string",
              "name": "message",
              "type": "string"
            },
            {
              "internalType": "string",
              "name": "winner",
              "type": "string"
            }
          ],
          "internalType": "struct BuildSpace.handThrow[]",
          "name": "",
          "type": "tuple[]"
        }
      ],
      "stateMutability": "view",
      "type": "function"
    },
    {
      "inputs": [],
      "name": "getTotalWaves",
      "outputs": [
        {
          "internalType": "uint256",
          "name": "",
          "type": "uint256"
        }
      ],
      "stateMutability": "view",
      "type": "function"
    },
    {
      "inputs": [],
      "name": "hand",
      "outputs": [
        {
          "internalType": "enum BuildSpace.handOptions",
          "name": "",
          "type": "uint8"
        }
      ],
      "stateMutability": "view",
      "type": "function"
    },
    {
      "inputs": [
        {
          "internalType": "enum BuildSpace.handOptions",
          "name": "_handOption",
          "type": "uint8"
        },
        {
          "internalType": "string",
          "name": "_message",
          "type": "string"
        }
      ],
      "name": "throwHand",
      "outputs": [],
      "stateMutability": "nonpayable",
      "type": "function"
    },
    {
      "inputs": [],
      "name": "totalWaves",
      "outputs": [
        {
          "internalType": "uint256",
          "name": "",
          "type": "uint256"
        }
      ],
      "stateMutability": "view",
      "type": "function"
    },
    {
      "inputs": [
        {
          "internalType": "string",
          "name": "_hand",
          "type": "string"
        }
      ],
      "name": "wave",
      "outputs": [],
      "stateMutability": "nonpayable",
      "type": "function"
    }
  ],
  "bytecode": "0x6080604052600080553480156200001557600080fd5b506200004660405180606001604052806026815260200162001e9f60269139426200004c60201b620010a51760201c565b6200020e565b620000ee8282604051602401620000659291906200016d565b6040516020818303038152906040527f9710a9d0000000000000000000000000000000000000000000000000000000007bffffffffffffffffffffffffffffffffffffffffffffffffffffffff19166020820180517bffffffffffffffffffffffffffffffffffffffffffffffffffffffff8381831617835250505050620000f260201b60201c565b5050565b60008151905060006a636f6e736f6c652e6c6f679050602083016000808483855afa5050505050565b60006200012882620001a1565b620001348185620001ac565b935062000146818560208601620001c7565b6200015181620001fd565b840191505092915050565b6200016781620001bd565b82525050565b600060408201905081810360008301526200018981856200011b565b90506200019a60208301846200015c565b9392505050565b600081519050919050565b600082825260208201905092915050565b6000819050919050565b60005b83811015620001e7578082015181840152602081019050620001ca565b83811115620001f7576000848401525b50505050565b6000601f19601f8301169050919050565b611c81806200021e6000396000f3fe608060405234801561001057600080fd5b50600436106100625760003560e01c8063291bcab314610067578063449d46c0146100855780638df6fbcc146100a15780639a2cdc08146100bf5780639b39af08146100dd578063d9121fbe146100fb575b600080fd5b61006f610117565b60405161007c919061187f565b60405180910390f35b61009f600480360381019061009a9190611545565b61011d565b005b6100a9610179565b6040516100b6919061177a565b60405180910390f35b6100c761018c565b6040516100d4919061187f565b60405180910390f35b6100e56101d7565b6040516100f29190611758565b60405180910390f35b610115600480360381019061011091906114f1565b610441565b005b60005481565b600160008082825461012f9190611956565b925050819055506101766040518060400160405280601781526020017f2573206a757374207761766564207769746820612025730000000000000000008152503383611141565b50565b600160009054906101000a900460ff1681565b60006101cf6040518060400160405280601681526020017f5765206861766520256420746f74616c207761766573000000000000000000008152506000546110a5565b600054905090565b60606002805480602002602001604051908101604052809291908181526020016000905b8282101561043857838290600052602060002090600402016040518060a00160405290816000820160009054906101000a900473ffffffffffffffffffffffffffffffffffffffff1673ffffffffffffffffffffffffffffffffffffffff1673ffffffffffffffffffffffffffffffffffffffff1681526020016000820160149054906101000a900460ff1660028111156102bf577f4e487b7100000000000000000000000000000000000000000000000000000000600052602160045260246000fd5b60028111156102f7577f4e487b7100000000000000000000000000000000000000000000000000000000600052602160045260246000fd5b81526020016001820154815260200160028201805461031590611a83565b80601f016020809104026020016040519081016040528092919081815260200182805461034190611a83565b801561038e5780601f106103635761010080835404028352916020019161038e565b820191906000526020600020905b81548152906001019060200180831161037157829003601f168201915b505050505081526020016003820180546103a790611a83565b80601f01602080910402602001604051908101604052809291908181526020018280546103d390611a83565b80156104205780601f106103f557610100808354040283529160200191610420565b820191906000526020600020905b81548152906001019060200180831161040357829003601f168201915b505050505081525050815260200190600101906101fb565b50505050905090565b6104816040518060400160405280601881526020017f7468726f7765722025733a20206d6573736167653a20257300000000000000008152503383611141565b600060028054905014610e0957600260016002805490506104a291906119ac565b815481106104d9577f4e487b7100000000000000000000000000000000000000000000000000000000600052603260045260246000fd5b906000526020600020906004020160036000820160009054906101000a900473ffffffffffffffffffffffffffffffffffffffff168160000160006101000a81548173ffffffffffffffffffffffffffffffffffffffff021916908373ffffffffffffffffffffffffffffffffffffffff1602179055506000820160149054906101000a900460ff168160000160146101000a81548160ff021916908360028111156105ae577f4e487b7100000000000000000000000000000000000000000000000000000000600052602160045260246000fd5b02179055506001820154816001015560028201816002019080546105d190611a83565b6105dc929190611344565b5060038201816003019080546105f190611a83565b6105fc929190611344565b509050506000600281111561063a577f4e487b7100000000000000000000000000000000000000000000000000000000600052602160045260246000fd5b826002811115610673577f4e487b7100000000000000000000000000000000000000000000000000000000600052602160045260246000fd5b141561088457600160028111156106b3577f4e487b7100000000000000000000000000000000000000000000000000000000600052602160045260246000fd5b600360000160149054906101000a900460ff1660028111156106fe577f4e487b7100000000000000000000000000000000000000000000000000000000600052602160045260246000fd5b1415610755576040518060400160405280601681526020017f6c6f73653a20706170657220626561747320726f636b000000000000000000008152506007908051906020019061074f9291906113d1565b5061087f565b6000600281111561078f577f4e487b7100000000000000000000000000000000000000000000000000000000600052602160045260246000fd5b600360000160149054906101000a900460ff1660028111156107da577f4e487b7100000000000000000000000000000000000000000000000000000000600052602160045260246000fd5b1415610831576040518060400160405280601281526020017f7469653a20726f636b20616e6420726f636b00000000000000000000000000008152506007908051906020019061082b9291906113d1565b5061087e565b6040518060400160405280601a81526020017f77696e3a20726f636b20637275736865732073636973736f72730000000000008152506007908051906020019061087c9291906113d1565b505b5b610cd4565b600160028111156108be577f4e487b7100000000000000000000000000000000000000000000000000000000600052602160045260246000fd5b8260028111156108f7577f4e487b7100000000000000000000000000000000000000000000000000000000600052602160045260246000fd5b1415610aea57600280811115610936577f4e487b7100000000000000000000000000000000000000000000000000000000600052602160045260246000fd5b600360000160149054906101000a900460ff166002811115610981577f4e487b7100000000000000000000000000000000000000000000000000000000600052602160045260246000fd5b14156109bb57604051806060016040528060238152602001611bd860239139600790805190602001906109b59291906113d1565b50610ae5565b600160028111156109f5577f4e487b7100000000000000000000000000000000000000000000000000000000600052602160045260246000fd5b600360000160149054906101000a900460ff166002811115610a40577f4e487b7100000000000000000000000000000000000000000000000000000000600052602160045260246000fd5b1415610a97576040518060400160405280601181526020017f7469653a2070617065722070617065722100000000000000000000000000000081525060079080519060200190610a919291906113d1565b50610ae4565b6040518060400160405280601981526020017f77696e3a20706170657220777261707320757020726f636b210000000000000081525060079080519060200190610ae29291906113d1565b505b5b610cd3565b60006002811115610b24577f4e487b7100000000000000000000000000000000000000000000000000000000600052602160045260246000fd5b600360000160149054906101000a900460ff166002811115610b6f577f4e487b7100000000000000000000000000000000000000000000000000000000600052602160045260246000fd5b1415610ba957604051806060016040528060238152602001611c296023913960079080519060200190610ba39291906113d1565b50610cd2565b600280811115610be2577f4e487b7100000000000000000000000000000000000000000000000000000000600052602160045260246000fd5b600360000160149054906101000a900460ff166002811115610c2d577f4e487b7100000000000000000000000000000000000000000000000000000000600052602160045260246000fd5b1415610c84576040518060400160405280601681526020017f7469653a2073636973736f72732073636973736f72730000000000000000000081525060079080519060200190610c7e9291906113d1565b50610cd1565b6040518060400160405280601d81526020017f77696e3a2073636973736f7273206375747320646f776e20706170657200000081525060079080519060200190610ccf9291906113d1565b505b5b5b5b610e046040518060600160405280602e8152602001611bfb602e9139600360000160149054906101000a900460ff166002811115610d3b577f4e487b7100000000000000000000000000000000000000000000000000000000600052602160045260246000fd5b846002811115610d74577f4e487b7100000000000000000000000000000000000000000000000000000000600052602160045260246000fd5b60078054610d8190611a83565b80601f0160208091040260200160405190810160405280929190818152602001828054610dad90611a83565b8015610dfa5780601f10610dcf57610100808354040283529160200191610dfa565b820191906000526020600020905b815481529060010190602001808311610ddd57829003601f168201915b50505050506111e0565b610e94565b6040518060400160405280600381526020017f77696e000000000000000000000000000000000000000000000000000000000081525060079080519060200190610e549291906113d1565b50610e936040518060400160405280601781526020017f7468697320697320746865206669727374207468726f77000000000000000000815250611282565b5b60026040518060a001604052803373ffffffffffffffffffffffffffffffffffffffff168152602001846002811115610ef6577f4e487b7100000000000000000000000000000000000000000000000000000000600052602160045260246000fd5b815260200142815260200183815260200160078054610f1490611a83565b80601f0160208091040260200160405190810160405280929190818152602001828054610f4090611a83565b8015610f8d5780601f10610f6257610100808354040283529160200191610f8d565b820191906000526020600020905b815481529060010190602001808311610f7057829003601f168201915b5050505050815250908060018154018082558091505060019003906000526020600020906004020160009091909190915060008201518160000160006101000a81548173ffffffffffffffffffffffffffffffffffffffff021916908373ffffffffffffffffffffffffffffffffffffffff16021790555060208201518160000160146101000a81548160ff02191690836002811115611056577f4e487b7100000000000000000000000000000000000000000000000000000000600052602160045260246000fd5b02179055506040820151816001015560608201518160020190805190602001906110819291906113d1565b50608082015181600301908051906020019061109e9291906113d1565b5050505050565b61113d82826040516024016110bb9291906117fc565b6040516020818303038152906040527f9710a9d0000000000000000000000000000000000000000000000000000000007bffffffffffffffffffffffffffffffffffffffffffffffffffffffff19166020820180517bffffffffffffffffffffffffffffffffffffffffffffffffffffffff838183161783525050505061131b565b5050565b6111db838383604051602401611159939291906117b7565b6040516020818303038152906040527fe0e9ad4f000000000000000000000000000000000000000000000000000000007bffffffffffffffffffffffffffffffffffffffffffffffffffffffff19166020820180517bffffffffffffffffffffffffffffffffffffffffffffffffffffffff838183161783525050505061131b565b505050565b61127c848484846040516024016111fa949392919061182c565b6040516020818303038152906040527fa54ed4bd000000000000000000000000000000000000000000000000000000007bffffffffffffffffffffffffffffffffffffffffffffffffffffffff19166020820180517bffffffffffffffffffffffffffffffffffffffffffffffffffffffff838183161783525050505061131b565b50505050565b611318816040516024016112969190611795565b6040516020818303038152906040527f41304fac000000000000000000000000000000000000000000000000000000007bffffffffffffffffffffffffffffffffffffffffffffffffffffffff19166020820180517bffffffffffffffffffffffffffffffffffffffffffffffffffffffff838183161783525050505061131b565b50565b60008151905060006a636f6e736f6c652e6c6f679050602083016000808483855afa5050505050565b82805461135090611a83565b90600052602060002090601f01602090048101928261137257600085556113c0565b82601f1061138357805485556113c0565b828001600101855582156113c057600052602060002091601f016020900482015b828111156113bf5782548255916001019190600101906113a4565b5b5090506113cd9190611457565b5090565b8280546113dd90611a83565b90600052602060002090601f0160209004810192826113ff5760008555611446565b82601f1061141857805160ff1916838001178555611446565b82800160010185558215611446579182015b8281111561144557825182559160200191906001019061142a565b5b5090506114539190611457565b5090565b5b80821115611470576000816000905550600101611458565b5090565b6000611487611482846118bf565b61189a565b90508281526020810184848401111561149f57600080fd5b6114aa848285611a41565b509392505050565b6000813590506114c181611bc7565b92915050565b600082601f8301126114d857600080fd5b81356114e8848260208601611474565b91505092915050565b6000806040838503121561150457600080fd5b6000611512858286016114b2565b925050602083013567ffffffffffffffff81111561152f57600080fd5b61153b858286016114c7565b9150509250929050565b60006020828403121561155757600080fd5b600082013567ffffffffffffffff81111561157157600080fd5b61157d848285016114c7565b91505092915050565b600061159283836116bd565b905092915050565b6115a3816119e0565b82525050565b6115b2816119e0565b82525050565b60006115c382611900565b6115cd8185611923565b9350836020820285016115df856118f0565b8060005b8581101561161b57848403895281516115fc8582611586565b945061160783611916565b925060208a019950506001810190506115e3565b50829750879550505050505092915050565b61163681611a2f565b82525050565b61164581611a2f565b82525050565b60006116568261190b565b6116608185611934565b9350611670818560208601611a50565b61167981611ba2565b840191505092915050565b600061168f8261190b565b6116998185611945565b93506116a9818560208601611a50565b6116b281611ba2565b840191505092915050565b600060a0830160008301516116d5600086018261159a565b5060208301516116e8602086018261162d565b5060408301516116fb604086018261173a565b5060608301518482036060860152611713828261164b565b9150506080830151848203608086015261172d828261164b565b9150508091505092915050565b61174381611a25565b82525050565b61175281611a25565b82525050565b6000602082019050818103600083015261177281846115b8565b905092915050565b600060208201905061178f600083018461163c565b92915050565b600060208201905081810360008301526117af8184611684565b905092915050565b600060608201905081810360008301526117d18186611684565b90506117e060208301856115a9565b81810360408301526117f28184611684565b9050949350505050565b600060408201905081810360008301526118168185611684565b90506118256020830184611749565b9392505050565b600060808201905081810360008301526118468187611684565b90506118556020830186611749565b6118626040830185611749565b81810360608301526118748184611684565b905095945050505050565b60006020820190506118946000830184611749565b92915050565b60006118a46118b5565b90506118b08282611ab5565b919050565b6000604051905090565b600067ffffffffffffffff8211156118da576118d9611b73565b5b6118e382611ba2565b9050602081019050919050565b6000819050602082019050919050565b600081519050919050565b600081519050919050565b6000602082019050919050565b600082825260208201905092915050565b600082825260208201905092915050565b600082825260208201905092915050565b600061196182611a25565b915061196c83611a25565b9250827fffffffffffffffffffffffffffffffffffffffffffffffffffffffffffffffff038211156119a1576119a0611ae6565b5b828201905092915050565b60006119b782611a25565b91506119c283611a25565b9250828210156119d5576119d4611ae6565b5b828203905092915050565b60006119eb82611a05565b9050919050565b6000819050611a0082611bb3565b919050565b600073ffffffffffffffffffffffffffffffffffffffff82169050919050565b6000819050919050565b6000611a3a826119f2565b9050919050565b82818337600083830152505050565b60005b83811015611a6e578082015181840152602081019050611a53565b83811115611a7d576000848401525b50505050565b60006002820490506001821680611a9b57607f821691505b60208210811415611aaf57611aae611b44565b5b50919050565b611abe82611ba2565b810181811067ffffffffffffffff82111715611add57611adc611b73565b5b80604052505050565b7f4e487b7100000000000000000000000000000000000000000000000000000000600052601160045260246000fd5b7f4e487b7100000000000000000000000000000000000000000000000000000000600052602160045260246000fd5b7f4e487b7100000000000000000000000000000000000000000000000000000000600052602260045260246000fd5b7f4e487b7100000000000000000000000000000000000000000000000000000000600052604160045260246000fd5b6000601f19601f8301169050919050565b60038110611bc457611bc3611b15565b5b50565b60038110611bd457600080fd5b5056fe6c6f73653a2070617065722069732063757420646f776e2062792073636973736f72736c6173742068616e643a2025642c2063757272656e742068616e643a2025642c2077696e5f73746174653a2025736c6f73653a2073636973736f727320676574732064616d6167656420627920726f636ba2646970667358221220ce950904ae956f767bd7872efc53c3b2c47960181fc4afc180488e1fa4a3876364736f6c63430008040033596f20796f2c204920616d206120636f6e747261637420616e64204920616d20736d6172743a",
  "linkReferences": {},
  "deployedLinkReferences": {}
}